:020000040001F9
:10B00000B8340020D5B00100EFB00100F1B001006C
:10B010000000000000000000000000000000000030
:10B02000000000000000000000000000F3B001007C
:10B030000000000000000000F5B00100F7B00100C2
:10B04000F1B80100F9B0010009BB0100F9B001003D
:10B05000F9B0010000000000A1B20100F9B0010048
:10B06000F9B00100DDBA0100F9B00100F9B001004A
:10B07000F9B00100F9B00100F9B00100F9B0010028
:10B08000F9B0010045B90100F9B00100F9B00100C3
:10B0900015BA0100F9B001001DBA0100F9B00100B4
:10B0A000F9B00100F9B0010000000000000000004C
:10B0B0000000000000000000000000000000000090
:10B0C0000348854600F0DAF800480047BDD9010082
:10B0D000B83400200321094802680A430260084886
:10B0E00002680A4302600748804707480047FEE7B6
:10B0F000FEE7FEE7FEE7FEE7FEE70000240500406E
:10B10000540500403DBA0100C1B0010030B50B4606
:10B11000014600202022012409E00D46D5409D4231
:10B1200005D31D469540491B2546954040191546B7
:10B13000521E002DF1DC30BDF0B51FB406460020D4
:10B1400082B005464024019100901BE001992246FF
:10B150000F46304600F081F8049A059B801A994109
:10B1600010D310461946224600F067F8361A8F4170
:10B170000197224601200021009F00F05EF8381858
:10B180004D4100902046641E0028DFDC019B0098A2
:10B190002946324607B0F0BD03460B439B0703D058
:10B1A00009E008C9121F08C0042AFAD203E00B788C
:10B1B0000370401C491C521EF9D27047D2B201E004
:10B1C0000270401C491EFBD270470022F6E710B502
:10B1D00013460A4604461946FFF7F0FF204610BD05
:10B1E000421C0178401C0029FBD1801A704710B521
:10B1F000002200E0521C835C8C5CA34201D1002B36
:10B20000F8D1D8B2E1B2401A10BD03460A780270F4
:10B21000401C491C002AF9D11846704730B5054634
:10B220000020034600E05B1C934205D2EC5CC85C46
:10B23000201A01D1002CF6D130BD10B5202A04DB34
:10B240000146203A9140002010BD914020239C1AD5
:10B250000346E3401943904010BD10B5202A04DB9B
:10B260000846203AD040002110BD0B46D340D040C4
:10B270002024A21A91400843194610BD064C01250E
:10B28000064E05E0E36807CC2B430C3C984710348E
:10B29000B442F7D3FFF718FF58F8010078F801001F
:10B2A000F0B50024FF268BB0013601252746069411
:10B2B000304603F047F8002807D054484068284239
:10B2C00003D0304603F036F82C43361D6D007F1C4A
:10B2D000B6B2042FECD3FF257D35284603F032F8B3
:10B2E000002809D0284603F025F86807044306AA79
:10B2F0000121002003F00AF8454D200714D0012752
:10B30000002627420CD04348B20011180869096989
:10B31000C004C00E8903AA58890F002A00D09047A4
:10B320007F00761C042EECD3002C6DDA00200890F0
:10B33000401E63E0281940300778B906890E009155
:10B3400000214156491C49D009A9009802F03EFC51
:10B35000002843D0B8090190009801F03BFE80001E
:10B360002F580198002F02D0032802D00DE00328A7
:10B3700034D1009808ABC20841079446985C490F45
:10B3800001228A401043624698540098052109071B
:10B3900080004018072109024018006806A98003B0
:10B3A000800F0290009802F011FC0028029802D051
:10B3B000022802D012E0032810D10198032808D1F6
:10B3C000029802281ED00221009802F081FF761C0C
:10B3D000F6B2002F02D001990098B847641C042CE3
:10B3E000A8D3002E10D06A460121002002F08EFF63
:10B3F00006990098884207D006900898002634469F
:10B40000099097E70321DFE70BB0F0BD0063004030
:10B410004C2B002000650040F8B57D25ED0064222E
:10B4200029465FA001F0FAF8642229465EA001F0E7
:10B43000F5F8642229465EA001F0F0F8642229465E
:10B440005DA001F0EBF80A265E4C00963346627868
:10B450005DA15FA001F0F4F800960A2362785AA17A
:10B4600055A001F0EDF800960A23627856A15BA082
:10B4700001F0E6F800960A23627853A15AA001F081
:10B48000DFF80A23052250A15BA0009601F0D8F84E
:10B4900000960A2362784CA15AA001F0D1F86420EA
:10B4A00000900A2362785AA15CA001F0C9F86F10DD
:10B4B00000953B46627844A15CA001F0C1F800957C
:10B4C0003B46627840A15DA001F0BAF800953B468A
:10B4D00062783DA161A001F0B3F800953B46627827
:10B4E00039A167A001F0ACF800953B46627836A11F
:10B4F0006CA001F0A5F800952B46627832A16DA0F2
:10B5000001F09EF80A2211466EA001F087F86F0044
:10B5100000953B4662782CA16EA001F091F8009551
:10B520003B46627828A16FA001F08AF800953B465F
:10B53000627825A16FA001F083F800953B46627800
:10B5400021A170A001F07CF800953B4662781EA115
:10B5500070A001F075F800953B4662781AA175A0BD
:10B5600001F06EF82A46114675A001F057F80095D3
:10B570002B46627814A176A001F062F87DA100202C
:10B5800000F03CFA00962B4662780FA17CA001F0F7
:10B5900057F80A2229466AA001F040F8F8BD0000D9
:10B5A00041540D0A00000000415445300D0A0000CE
:10B5B0004154490D0A00000041542B474D4D0D0ADE
:10B5C00000000000E81F00200D0A4F4B0D0A00008C
:10B5D00041542B434D45453D320D0A0041542B4308
:10B5E0004C54533D310D0A0041542B4342415443C6
:10B5F000484B3D310D0A000041542B4350494E3F0A
:10B600000D0A000041542B435245473F0D0A0000EC
:10B610000D0A53485554204F4B0D0A0041542B43FB
:10B620004950534855540D0A0000000041542B4323
:10B63000474154543D300D0A0000000041542B5343
:10B64000415042523D332C312C22436F6E7479703D
:10B6500065222C2247505253220D0A0041542B538D
:10B66000415042523D332C312C2241504E222C224B
:10B670006D746E6972616E63656C6C220D0A0000F8
:10B6800041542B434744434F4E543D312C224950A3
:10B69000222C226D746E6972616E63656C6C220D72
:10B6A0000A00000041542B43474143543D312C31A3
:10B6B0000D0A000041542B53415042523D312C3170
:10B6C0000D0A000041542B53415042523D322C315F
:10B6D0000D0A000041542B43474154543D310D0A9B
:10B6E0000000000041542B4349504D55583D310D49
:10B6F0000A00000041542B4349505153454E443DEC
:10B70000310D0A0041542B43495052584745543D8E
:10B71000310D0A0041542B435354543D226D746E35
:10B720006972616E63656C6C222C22222C22220DC0
:10B730000A00000041542B43494943520D0A0000BE
:10B7400041542B43494653523B45300D0A000000FB
:10B7500041542B43444E534346473D22382E382E06
:10B76000382E38222C22382E382E342E34220D0A30
:10B7700000000000737563636573730D0A000000B9
:10B7800041542B43474154543F0D0A0070B57D246A
:10B79000E40022460A210CA000F040FF174D03E010
:10B7A00015A1002000F02AF928780028F8D01448C4
:10B7B000806801F09DFC204602F018FA11A10020DB
:10B7C00000F01CF9012070BD41542B4349505354E3
:10B7D0004152543D302C22544350222C22636C6F32
:10B7E00075642E736D617274686F6F6D2E636F6D0B
:10B7F000222C313838330D0A0000000008200020C8
:10B80000E81F00207A7A7A7A7A7A7A7A7A7A7A7A59
:10B810007A7A7A0D0A00000038B564240D4D009440
:10B8200023466A780CA10EA000F00AFF009464235E
:10B830006A7809A10FA000F003FF6422114612A04C
:10B8400000F0ECFE009464236A7803A113A000F0DA
:10B85000F7FE38BDE81F00200D0A4F4B0D0A00000F
:10B8600041542B43495052584745543D342C300DD8
:10B870000A00000041542B4349505354415455533E
:10B880003D300D0A0000000041542B434950434C09
:10B890004F53453D302C310D0A00000041542B43DD
:10B8A000495053534C3D300D0A0000008307FF22DE
:10B8B000DB0E9A408907090E994000280BDA000731
:10B8C000000F0838830808489B001818C369934381
:10B8D0000B43C3617047830804489B001B1818681A
:10B8E000904308431860704700ED00E000E400E07A
:10B8F000F8B5FF20013002F071F9002401250E4E49
:10B900000E4F002807D00E4804600120B0607D7003
:10B91000002001F085FBFF20053002F05FF90028D0
:10B9200008D00748001D04600220B060BD700120EF
:10B9300001F076FBF8BD000000030040382B00202A
:10B940000001004010B5064900200860486088608A
:10B95000C860034940390860486003F057FB10BDD8
:10B9600040110140F8B506460C48144600780D46D3
:10B97000002801D100F0D2F800236846009303703C
:10B9800000F0D6FD22462946304600F009F804466C
:10B990006846007800F0EAFD2046F8BD402C002003
:10B9A00070B50E4618214843134914464518E86AF5
:10B9B0001835002804D001280FD0022805D113E043
:10B9C000284600F0DFF8A04201D2002411E0224610
:10B9D0003146284600F011F90BE0284600F0D2F875
:10B9E000A042F4D20446F2E73146284600F0D5F8EA
:10B9F0000446204670BD0000402C002070B505466E
:10BA00000C460846FFF7ECFB024621462846FFF7A6
:10BA1000A9FF70BD10B503F06BFA10BD10B5064854
:10BA20004068002805D08047002801D000F00EFCB7
:10BA300010BD01F0E1FD10BDEC20002010B501F0BB
:10BA40003DFE002805D01F491D484860C8131E4907
:10BA500088611E48018CC9B201290BD1828C120762
:10BA600008D1028D1206120F042A03D1828D12060C
:10BA7000120F0AD0012921D1818C09071ED1018D15
:10BA80000906090F0A2904D007E0114A0121916033
:10BA9000F5E7828D1206120F05D00D290ED1808D8B
:10BAA0000006000F0AD10B480168012904D00A4999
:10BAB000016001680129FCD1C021416110BD000075
:10BAC000DFFF07C000050040006C0040C00F00F021
:10BAD0000006004000EC064075930000084801682D
:10BAE00000290BD00022026006480169491C01614F
:10BAF000642903D3016C0261491C01647047000092
:10BB000040910040FC1F002010B50249024803F09C
:10BB1000A3FC10BD942B00200020004010B5124C57
:10BB200002202061606111A0A06120465038E061D0
:10BB3000402020620020A06260620CA1A164214626
:10BB4000E0621039E16410212165A0656065E0655F
:10BB500009A1E01DFFF759FB08A12046FFF755FB9F
:10BB60002020A07110BD0000402C00205465726D93
:10BB7000696E616C00000000525454005345474701
:10BB8000455200000269C1688A4203D88068401AA1
:10BB9000801800E0501A401E7047F7B5064682B084
:10BBA00000200090F46817463069A04201D9051BB7
:10BBB00002E0B168201A0D1AB0686D1E001BA84281
:10BBC00000D80546BD4200D33D4670682A4600199C
:10BBD0000399FFF7E1FA00987F1B40190090039842
:10BBE000641940190390B068A04200D10024F460A9
:10BBF000002FD9D1009805B0F0BDF7B5C66817463B
:10BC000004468068851B6068BD4206D98019019989
:10BC1000FFF7C2FAF019E060FEBD2A4680190199CB
:10BC2000FFF7BAFA01987E1B411932466068FFF7A8
:10BC3000B3FAE660FEBD00000FB410B503A9044BD3
:10BC4000044A029800F046F810BC08BC04B018473B
:10BC500033D50100E82000200FB410B504A9074B2C
:10BC600002AA039800F036F8044602A9002000F06A
:10BC70006BFA204610BC08BC04B0184749C101004B
:10BC800030B47446641E2578641CAB4200D21D4655
:10BC9000635D5B00E31830BC184702E008C8121F60
:10BCA00008C1002AFAD170477047002001E001C1A5
:10BCB000121F002AFBD17047202804DA012181409D
:10BCC0000348014201D00120704700207047000066
:10BCD000FC06FFBCFFB591B00F460546002606E006
:10BCE00025280AD0149A139990476D1C761C287841
:10BCF0000028F5D1304615B0F0BD00240094012194
:10BD0000F34A029400E004436D1C2B780846203B64
:10BD100098401042F7D128782A280ED0022128789E
:10BD20000246303A092A15D8009A0A235A43303A73
:10BD300080180C436D1C0090F1E701CF00900028A3
:10BD400005DA01204003044300984042009002209D
:10BD500004436D1C28782E2815D1042004436878EC
:10BD60006D1C2A280AD101CF6D1C02900BE00299AC
:10BD70000A225143303940186D1C02902878014640
:10BD800030390929F3D928786C2810D006DC4C28E2
:10BD90001AD068280ED06A2817D104E0742813D06E
:10BDA0007A2812D110E00120400504430CE0012163
:10BDB000090501E0032109050C436978814203D19B
:10BDC0000120000524186D1C6D1C287803906E2836
:10BDD0001ED00CDC632831D004DC00288AD058281F
:10BDE00011D1B2E064287BD069280CD178E07328A7
:10BDF0002DD004DC6F2870D0702804D1A7E07528FE
:10BE00006CD078286BD0149A13999047761C62E016
:10BE10006002400F022807D003280AD0042838689F
:10BE20000AD006603F1D56E03868F1170660416091
:10BE3000F8E738680680F5E70670F3E73878694672
:10BE400008740020487404A80390012003E03868B7
:10BE500003900020C0433F1D61070FD5002101E082
:10BE60000199491C029A0191914213DA8142F7DB50
:10BE7000019A0399895C0029F2D10BE0002101E0CD
:10BE80000199491C01918142FADB019A0399895C6D
:10BE90000029F5D101990098139A401A0090214683
:10BEA000149B00F03BF901998019461807E00398AC
:10BEB00003990078491C0391149A139990470198AB
:10BEC000401E0190401CF2D12146149B139A009809
:10BED00000F014F986196D1C09E741E033E034E005
:10BEE0000A200021049005916002410F022905D02B
:10BEF00001CFC2179446032905D007E0FF1DFF08B4
:10BF0000FF0003CF06E000B2C2179446042902D115
:10BF100040B2C1178C4600226146944506DA0A46B3
:10BF20000021404291418C462D2102E0210504D59B
:10BF30002B216A461176012103E0E10701D020217F
:10BF4000F7E7019154E00A200BE0102009E01020EF
:10BF5000049000210420044308200591029003E08E
:10BF600008200021059104906002410F022905D0AC
:10BF700001CF00229446032906D006E0FF1DFF08EA
:10BF8000FF0003CF8C4603E080B2042900D1C0B289
:10BF90000021019121072BD50399702906D0049A1D
:10BFA0001021059B4A401A4305D00EE040216A4605
:10BFB0001176012108E06146014306D030216A462E
:10BFC00011760399517602210191049A0821059B6B
:10BFD0004A401A430CD16146014301D1610707D59C
:10BFE00030216A461176012101910299491E029180
:10BFF0000399582904D037A103910FA90F910DE09F
:10C0000039A1F9E76146059B049AFFF795F8039B70
:10C010008C469B5C0F9A521E0F921370614601432F
:10C02000F0D10F9807A9081A20300390600704D5B3
:10C03000012000048443029801E00120029003994A
:10C04000884201DD401A00E000204118029001986A
:10C0500009180098401A0090E00306D42146149B6A
:10C06000139A009800F05AF886190020049008E00E
:10C0700006A9085C149A139990470498401C761CF2
:10C08000049001998842F3DBE0030CD52146149B10
:10C09000139A009800F042F8861904E0149A3020B0
:10C0A00013999047761C0299481E02900029F5DCEE
:10C0B00008E00F980F990078491C0F91149A139972
:10C0C0009047761C0399481E03900029F1DCFBE69B
:10C0D000092801003031323334353637383961625E
:10C0E0006364656600000000303132333435363722
:10C0F000383941424344454600000000F8B5044643
:10C1000000251E461746880404D405E03946202041
:10C11000B0476D1C641EF9D52846F8BDFFB504462E
:10C12000002581B01E46C80301D5302700E0202736
:10C13000880404D505E038460399B0476D1C641E99
:10C14000F9D5284605B0F0BD0A68531C0B60107085
:10C15000704710B501220221002000F09BFD00284D
:10C1600001D0072812D107220221012000F092FD00
:10C17000002801D0072809D100210A22084600F032
:10C1800089FD002801D0072800D1002010BD10B57E
:10C19000022000F035FC10BD70B50024064D06E00D
:10C1A0006968E000085C012101F0FAFD641C287850
:10C1B0008442F5D3002070BD98200020F8B51546C4
:10C1C0000C460646052A01D20720F8BD01F0C0FE44
:10C1D000002803D101F08EFE0028F6D1104900207E
:10C1E0004E600C70C8608D6008610E4D0DE0E0007F
:10C1F00069688019009181786A46517000780A4A0E
:10C20000694601F019FE0028DFD12046641EE4B221
:10C210000028ECD1054A0021024800F04DF8F8BD95
:10C22000982000203CF70100A9D50100ADD3010002
:10C23000BFF34F8F04490348C860BFF34F8F00BF5F
:10C24000FDE700000400FA0500ED00E00EB5002156
:10C25000029000916A4601910148FFF7E9FF0EBD87
:10C260000140000010B58268C368934203D001F01A
:10C270004DF9002010BD052010BD002906D0002A70
:10C2800002D0531E134203D0092070470E2070477E
:10C290000160838000218160C1600846704710B54D
:10C2A0008268C3689A1A83889A4203D801F038F9E1
:10C2B000002010BD042010BD094B5B68002B07D087
:10C2C000002A07D0002805D00068037C002B03D08B
:10C2D0000820704707207047417442610020704772
:10C2E000BC200020FFB507469007002581B01E4600
:10C2F0001446002825D1002C23D002F045FC3046FE
:10C30000114EF06030461030057045700299817012
:10C3100044607560357001240C4875702405046014
:10C3200003211420FFF7C2FA09480460094CA760F2
:10C3300003211120FFF7BAFA6068B060002005B051
:10C34000F0BD0720FBE70000AC20002080E200E009
:10C3500000E100E000150140FEB51F4B5B68002BBB
:10C3600030D000282ED0052901D20720FEBD436918
:10C37000002B27D0437C012B26D0002702910446B6
:10C380000025694616460D70684600F0D1F801A8F0
:10C3900003F0F6F8002819D0012101700F4944601C
:10C3A00049688160029907614661C16068460A492F
:10C3B000007948706846007800F0D8F802F0DAFD9D
:10C3C0002846FEBD0820FEBD0F46D7E76846042577
:10C3D000007800F0CBF8F3E7BC2000200015014006
:10C3E00010B50849496800290AD0002808D04169D9
:10C3F000002905D000210174022102F0E3FD10BDE7
:10C40000082010BDBC20002070B50B4D0146AE7851
:10C410000A48FFF727FF0446002E0AD00020A87024
:10C42000691C0122C81D01F0DBFD002801D0FFF7C7
:10C430000DFF204670BD0000CC200020D02B002036
:10C44000F0B5274E89B01F460D00044672601CD01F
:10C45000A888296882B22348FFF70FFF002815D16A
:10C46000A889A96882B21F481030FFF706FF00288C
:10C470000CD120221C496846FEF78EFE60690690AA
:10C48000207C002804D0012103E0072009B0F0BD82
:10C490000021684601750777607C002800D00E20D7
:10C4A00069464875E0680290A06803902068019092
:10C4B000606800900A480D4A083001F051FD0028DC
:10C4C000E4D1B0702068401CE0D00548083001F08D
:10C4D000B5FD03490122491CC81D01F081FDD5E7C6
:10C4E000CC200020D02B002044F701006DF3010088
:10C4F00010B501460C48FFF7D2FE040012D10B48DC
:10C5000001F066FE00280DD1084907480839FFF7F9
:10C51000A9FE002806D1054901220839034801F087
:10C52000F7FD0446204610BDE02B0020D42000205B
:10C5300030B5EFF3108172B6094A54680123002C1C
:10C5400004D00370002900D162B630BD5360054BA2
:10C550001D68054C254015601C6000220270F1E743
:10C56000E020002080E100E0FC06FFBC08494A68AA
:10C57000002A0CD000280AD1EFF3108072B60A68A6
:10C58000044B1A6000224A60002800D162B670474E
:10C59000E020002000E100E0F8B5074608680C46FE
:10C5A0000526411C01253602002906D02946814076
:10C5B00019488160206801F070FE6068411C02D05B
:10C5C000002101F061FE3968A06989194862607D27
:10C5D000217D3A6808439119C866386806CC8019ED
:10C5E0004261C160207B083C012814D1A068411C35
:10C5F00002D0002101F048FEE068411C05D08540D2
:10C6000005488560E06801F048FE3A68E1689219E3
:10C61000A06891601061F8BD0005005070B5054636
:10C62000144605A10020FFF7E9F92246012128461A
:10C6300000F086FF70BD00007965730D0A000000F0
:10C64000F8B514460E460746069D01E0641EE4B2A6
:10C650002B4601223146384602F036FB002801D134
:10C66000002CF3D1F8BD000070B500280AD00F4DA2
:10C670002978002908D0044602F06AFA002805D07B
:10C68000002070BD0E2070BD082070BDE86806282F
:10C6900009D2074A8100891822880A8062884A8064
:10C6A000401CE860ECE7042070BD000088200020FA
:10C6B00098280020002808D0002205490123CA60DC
:10C6C0000B708A604860104670470E20704700006B
:10C6D0008820002010B5002811D000290FD0114A61
:10C6E0001278002A0BD00A88112A11D0302A07D0DC
:10C6F000322A09D0332A02D1091D01F057FF10BD9B
:10C70000091D01F0CDFF10BD091D01F0D3FE10BDC4
:10C710008A88092189014018C18B8A42F7D10021FA
:10C72000C17610BD8820002010B50B4600280ED021
:10C7300013490A78002A0CD0CA68002A09D00922B5
:10C7400092018418E27E002A05D0112010BD0E202F
:10C7500010BD082010BDE38300228A602277A276F4
:10C760006276024607480188118040885080012186
:10C77000184690DF0028EDD10120E076002010BDA2
:10C78000882000209828002010B5044601F0F2FD12
:10C79000204600F0C1F921460448FFF79BFF0348FB
:10C7A0002146103800F080F810BD0000A4210020C0
:10C7B00010B504460878012809D002281DD00328A6
:10C7C00004D111A0FFF738FA02F02AFA10BD488808
:10C7D0000A4601460A32204600F02CF8002801D013
:10C7E000FFF734FD204600F0D1F8002801D0FFF714
:10C7F0002DFD09A0FFF720FA10BD0020097A00E006
:10C80000401C8142FCD810BD446973636F6E6E6535
:10C81000637465640D0A0000546865206465766978
:10C82000636520697320636F6D70617469626C6504
:10C830000D0A000000280AD04180002A05D0518846
:10C84000C1801188818091880181002070470E206D
:10C850007047000030B5124B0D4604000FCB85B079
:10C8600003936B4607C318D0002D16D021466846A7
:10C8700063DF00280FD1217868468174094901825D
:10C880000020C04360802868E0600020A0802081F4
:10C8900004A8FFF7E9FE05B030BD0E20FBE700005D
:10C8A00010F70100231500001FB500282DD0002926
:10C8B0002BD04288154B9A4202D08C88A24224D1B8
:10C8C0000C88112C14D0392C1FD18288002A1CD03E
:10C8D0008B89934219D1C268002A16D002236A4676
:10C8E00013700A4612320192097C6A46117209E0FD
:10C8F0008988914209D1C168002906D003216A467E
:10C9000011704380C268694690471FBDFFFF000059
:10C91000F0B585B0002200920192029203920B467C
:10C920000A780E33002A2CD18A88174CA24228D1CB
:10C930008C790278944224D1134D0022ED4313E008
:10C94000122454431E5B761902D0012E0BD104E051
:10C95000E41824896E46F48105E0E41827896E46C0
:10C9600077816489B481521C0C7A9442E8D8C268F9
:10C97000002A06D04A8869464A8001220A70C268A5
:10C98000904705B0F0BD0000231500001FB5010061
:10C9900018D048880D4A904216D0C988002913D073
:10C9A00001236A46137300235373094B1A695B69A9
:10C9B000009201936A46518003A90291694698DF6B
:10C9C00004B010BD0E20FBE70820F9E7FFFF0000D0
:10C9D00010F701000149085C70470000DEF6010015
:10C9E0000549095C05480069C840C007C00F00D070
:10C9F0000120012148407047DEF60100000500508B
:10CA000005490B5C05494A68012098400346934359
:10CA10008B601040C8607047DAF6010000050050D6
:10CA200010B50349085C012101F064FC10BD000051
:10CA3000DAF6010010B50349085C002101F05AFC48
:10CA400010BD0000DAF601000549095C05484068A0
:10CA5000C840C007C00F00D00120012148407047E6
:10CA6000DAF60100000500507CB50024074E25468B
:10CA7000305D0122009500231146019501F0C8FBAD
:10CA8000641C042CF4D300F003F87CBDDAF601003A
:10CA900010B500242046FFF7C3FF641C042CF9D313
:10CAA00010BD10B500242046FFF7C4FF641C042C01
:10CAB000F9D310BD0246002010B5C043054B00213C
:10CAC0005C5C944201D1084610BD491C0429F7D38F
:10CAD00010BD0000DEF6010070B50E4E00250C46BC
:10CAE000306000290DD0012000F0AEF8002801D000
:10CAF000022005E0002000F0A7F8002800D00B205D
:10CB000020707068002802D1FFF723FB05462846F5
:10CB100070BD00008020002010B51C4C01886068AA
:10CB200010290DD011290AD1401E606007D1FFF7EE
:10CB300010FB002803D02168002900D0884710BDD1
:10CB400000281ED100210122084600F0A3F8002889
:10CB500001D0072811D107220221012000F09AF804
:10CB6000002801D0072808D104220221002000F06B
:10CB700091F8002805D0072803D02168002900D0AB
:10CB800088476068401C606010BD00008020002065
:10CB900010B5002000F0BCF9002801D0062807D10C
:10CBA000012000F0B5F9002801D0062800D10020AE
:10CBB00010BD0000F3B581B00D460198FFF77AFF74
:10CBC0000446042813D21D481D4F1E4E002D27D0A9
:10CBD000012D0DD0022D0AD160002018C019457812
:10CBE000002D04D0F168002901D028468847FEBDF9
:10CBF000610061187D5CCF19797800290BD07168CC
:10CC00000A2251430F4A8068921CFFF7A5FB0028B7
:10CC100001D10198B0700B48B97810300155DFE7A9
:10CC20008068FFF7DDFB0748610061181030C91903
:10CC3000005D8D78A842D3D0FEBD0000E4F601006F
:10CC40006C2800206C20002010B5FFF7C9FE10BD35
:10CC500010B5042813D00A2810D1002000F03EF8A7
:10CC6000002801D0FFF7F2FAFFF792FF002801D069
:10CC7000FFF7ECFA3CDF08E0FFF7E8FA10BD0448E4
:10CC80001321408876DF0828F8D00028F4D110BDA1
:10CC90009421002070B50023042811D24400041907
:10CCA0000D4D012A02D101290DD000224600801924
:10CCB000094E801900290CD0012906D0022906D07E
:10CCC0000723184670BD0E30C2B22A55F9E74270EC
:10CCD000F7E78270F5E700006C28002010B5054AE0
:10CCE0000146127A0020D20702D0084600F050F820
:10CCF00010BD00006C200020F8B506461F48002437
:10CD00008660C26041600F46B00720D50025012231
:10CD100011462846FFF7BEFF6D1C0446042D02D2C3
:10CD2000002CF4D013E0002C11D17A08042114480F
:10CD3000FFF744FA04000AD1FFF72EFA040006D1E7
:10CD40000F48104A0021001FFFF7B6FA0446F0070B
:10CD500001D0FFF789FE002C0ED109480A4A0021B4
:10CD60000C38FFF7A9FA040006D10548074A01214B
:10CD70000838FFF7A1FA04462046F8BD6C200020D1
:10CD8000F0F6010063CF0100EDD701008FC1010073
:10CD9000F8B55D4C054660780026002803D00020D9
:10CDA0006070FFF775FE0120584F2B00FEF768FFFB
:10CDB00018970D0D2E3D4A5F64686F686FA97777ED
:10CDC000777777979A9DA0A9A9950020FFF73CFE59
:10CDD00000280AD00020FFF723FE022D02D1E12017
:10CDE000C0000BE07D20400108E00020FFF722FE9C
:10CDF000022D01D1C82001E0FF209130257064216F
:10CE0000FEF784F96168414300222BE00020FFF720
:10CE10001BFE002805D00020FFF702FE192040016C
:10CE2000ECE70020FFF706FEE4E70020FFF70CFE2A
:10CE3000002803D00020FFF7F3FDD3E70020FFF721
:10CE4000F9FDD9E70020FFF7FFFD002803D00020FF
:10CE5000FFF7E6FD02E00020FFF7ECFD25706068BB
:10CE6000410000223868FFF777FA064635E00020D7
:10CE7000FFF7C6FD257007E000203FE025702CE09D
:10CE800060700120FFF7BCFD00226168EAE7607076
:10CE90000120FFF7B5FD606881004118E1E778687F
:10CEA000FFF79EFA06461120401B01D0002E03D04A
:10CEB0000220FFF7B5FD10E001280BD9C821484337
:10CEC0006421FEF723F96168002241437868FFF787
:10CED00043FA06460220FFF7ADFD3046F8BDFFF7E6
:10CEE000D7FDCBE7FFF7D4FDC6E7FFF7D1FD04E0A0
:10CEF000FFF7CEFD0020FFF79DFD0120FFF79AFD13
:10CF0000BCE7FFF7CEFDB9E76C200020E4F6010096
:10CF100010B5FFF75FFD032101F0C9F9002010BD36
:10CF2000F8B507460020034680266D465406640E79
:10CF3000D20900D03443EC545B1C401CDBB2C0B2BD
:10CF4000002AF3D10422121A8F54002205231B1A3F
:10CF500003E0AC5C9E188C55521C8242F9DB401CED
:10CF6000F8BD10B500780221FFF724FE10BD0000C7
:10CF70000022D243830004490428CA5002D308186F
:10CF800020300277704700004C2B0020F0B50025C0
:10CF9000ED43002A02D00023042601E004230826E2
:10CFA0000B4C04E09F00E7597F1C04D05B1CB3428C
:10CFB000F8D32846F0BD26185DB2203635709E00A5
:10CFC000A151002AF5D1E11820310877F1E70000DE
:10CFD0004C2B0020024909182020085670470000F9
:10CFE0004C2B002038B50B460921890141188A7E57
:10CFF0006424624310184A7E002A08D0521ED2B21E
:10D0000012214A431218518A6A46491C01E0C1881C
:10D010006A461180008950801146184692DF38BD5B
:10D0200070B5084C050009D010342168002907D0DC
:10D0300008682060496828468847F6E70834F4E71E
:10D0400070BD0000382B0020F8B523484168002946
:10D050003ED00E6821494C6887688078E11B0D023C
:10D060002D0AED1C002814D101201D4A0004506037
:10D070001B4A403A50601B49400008601A4908604A
:10D080001A49012008602F2000F0FEFD12490120FE
:10D090008870B54200D23546E81900020F4B000AED
:10D0A000403318600D4A5168001B091B0902090A28
:10D0B0000002000AC91C814209D9506818602F205B
:10D0C00000F0E2FD01200749400480390860F8BD06
:10D0D00001F05AFDF8BD0000AC2000200015014011
:10D0E0004013014080E200E000E100E00010014058
:10D0F0001FB5002101220392009101910B4602917C
:10D100000A4600F003F804B010BD0000FFB589B076
:10D110001E4600F0EBF8002874D156A1FEF76EFC15
:10D12000012157480524418156A103C9574D0027C5
:10D130000391029056A10020FEF760FC02A8C05D9A
:10D140002855641C7F1CA4B2072FF3D3002E07D0F0
:10D1500012981399C0004901001D0843C0B200E0B5
:10D1600000201599002901D0022108430A990029BD
:10D1700006D0802108430B99002901D040210843A3
:10D1800028553F4F641CF988A0B20A0A2A54401C53
:10D1900080B22954401C82B23C49099802F038FA06
:10D1A0000446002E0AD002463849304602F030FAD2
:10D1B00002463649149802F02BFA04460A980028D1
:10D1C0000CD02246314902F023FA04460B9800287D
:10D1D00004D022462D4902F01BFA04467D26F600B3
:10D1E00032462E492EA0FFF719FA3246114631A0D9
:10D1F000FFF714FA661FB2B22449102002F0D6F9E4
:10D2000000240AE034E02A5D2BA104A8FEF724FDE7
:10D2100004A90020FEF7F2FB641CB442F3DB284CA7
:10D220002078002815D0C2B2184826A13238FEF75F
:10D2300013FD164900203239FEF7E0FB01F006FB32
:10D240002448C078002809D0E878386200200DB062
:10D25000F0BD18A10020FEF7D1FBE1E71EA10020E0
:10D26000FEF7CCFB00F05EFCF8610020B87038627D
:10D270000120ECE77265736964616D0D0A000000BE
:10D280004820002000044D5154540400C6270020BB
:10D290007265736964616D320D0A000088130000C5
:10D2A00041542B43495053454E443D302C33330DAC
:10D2B0000A00000000000000693D25640D0A00001E
:10D2C000FD1F0020636C69656E745F663D25640D0B
:10D2D0000A0000007C2600204D51545420434F4E3C
:10D2E0004E45435445440D0A0000000008480949D2
:10D2F00000780A6A002803D0002A06D00020704770
:10D30000002AFCD1D21E0A6270470120704700003B
:10D31000F91F00204820002010B501460148FFF702
:10D32000F7FA10BD94210020F7B5074609208001C7
:10D330003E18B07E64214843C519747E12206043B4
:10D3400041192A79601C0A3182B0904226D101AB82
:10D350000022384600F090F9002822D010E0401E4C
:10D36000A04201D1002003E01220604340191C308C
:10D370000246009001AB384600F07EF9002807D045
:10D3800003980021017001A9049893DF05B0F0BD56
:10D39000707E0099401C641C7076E4B22879A0422B
:10D3A000DDD80398012101700020EFE7F8B50026D1
:10D3B0000124154D23E06968F000471838782146AC
:10D3C0002A698140114218D08A432A6100F088FD01
:10D3D0003A782146EB6891401940034693409942C0
:10D3E0000BD17978012901D0012100E000217B686F
:10D3F0004140002B01D010469847761CF6B22878A1
:10D400008642D8D3F8BD000098200020F7B5092146
:10D41000890141181446897E642251430F18384609
:10D4200001F096FB060033D01A4A906806282FD2E6
:10D43000214614466C225043174D64224019418006
:10D440003946001DFDF7A8FE01980027002804D0EA
:10D45000A0686C2148432F5404E0A06802216C228C
:10D4600050432954A0686C2141434919401C8E66E1
:10D47000A060E16888420BD1002605E06C20704373
:10D480004019816E8847761CE0688642F6D3A76013
:10D49000FEBD000088200020B028002030B50D46D9
:10D4A0000921890141181446897E642251439BB0A9
:10D4B000081801F04DFB030005D0684644800121A7
:10D4C0000170019598471BB030BD000010B50E49A2
:10D4D00000230A784C78A24212D0521CD2B20A70B1
:10D4E000022A00D10B700A78074B920018339A5821
:10D4F0000260886810180002000A8860012010BDD0
:10D500000360002010BD0000AC20002082688388EA
:10D510001A4003689A5C0A708168491C81607047F0
:10D52000C26883881A4003689954C168491CC16065
:10D53000704710B50446C0B2FEF7DAFF204610BDB2
:10D54000F7B506460027124D1AE02F7011A10020F2
:10D55000FEF754FA00240EE0325D11A11148FEF7E7
:10D560007BFB10490020FEF749FA305DFEF7C0FF53
:10D570000028FAD1641C3046FDF732FEA042EBD8F9
:10D5800028780028E1D1029800F04AFBA87BFEBD74
:10D59000FC1F002073656E645F6B6F6C693D00005B
:10D5A00025630000C2260020F8B50746104E01256D
:10D5B000BD403068FEF714FF00280DD10D4C2069E6
:10D5C000284207D1384600F08BFC0028E06804D0E0
:10D5D000284303E0A8432061F8BDA843E060206928
:10D5E000002228432061A1683068FEF7B5FEF8BD2F
:10D5F0003CF7010098200020F8B51E4C2078002848
:10D6000036D0E068002600280CD00025607800287D
:10D610002ED1684652DF052806D0002806D0FEF736
:10D6200015FE0BE00125F1E7012607E0009800F068
:10D6300081FB2169002901D000988847002D13D172
:10D640006078002814D1608869460880A06861DF8E
:10D65000052804D0002804D0FEF7F8FD04E00125D9
:10D6600002E0E168A0688847002ECFD0002DE5D009
:10D67000F8BD0000EC20002030B50989002A05D053
:10D68000D088491C814213D1002030BD092292016B
:10D690008218947E64256C4324182489A142F3D017
:10D6A000491C1980917E642251430818008902E0C8
:10D6B0001980D088401E5880012030BD1048018C50
:10D6C000C9B2012917D1818C090714D1018D09062E
:10D6D0000A0F03D1828D1206120F0ED0090F0129F5
:10D6E00003D1828D1206120F07D0032903D1808D3A
:10D6F0000006000F01D00020704701207047000095
:10D70000C00F00F0F3B500240D4683B08E460935F6
:10D7100060E0285D29190190487802280AD0032882
:10D7200008D0042821D005281FD006283AD0072881
:10D7300038D04CE001980026470813E0700000192B
:10D74000411902206A46891C64DF002809D1684615
:10D7500001882448814204D10398018822488142EB
:10D7600032D0761CB742E9D831E00198002687080C
:10D7700015E0B0000019411902206A46891C64DFD7
:10D7800000280BD16846018803980088814205D1A2
:10D790006846817803988078814215D0761CB7421C
:10D7A000E7D814E010206A46891C64DF00280ED1F7
:10D7B0006846018803980088814208D168468178CC
:10D7C00003988078814202D1012005B0F0BD019814
:10D7D0002418641C7046007AC008A04299D8002022
:10D7E000F3E700000A1800002315000010B50448F4
:10D7F000017AC90702D00078FFF7CAFA10BD00000D
:10D800006C200020F0B5284C2146103948688B6800
:10D81000227886469C46CF78667836E018235343B4
:10D820006168521CC918A378D2B2934200D1002279
:10D830000B78022B02D0032B27D123E003464D683F
:10D84000194603E0A94204D00B46C96900291CD03F
:10D85000F8E7002919D08B4208D1C069002805D10A
:10D86000124F0125BD600025AC4601270D68C9692E
:10D87000D961002909D00B685B190B6005E00174C0
:10D88000C06900E000210028F9D19642C6D10649BE
:10D89000624610398A604860CF70704501D001201F
:10D8A000F0BD0020F0BD0000BC20002000100140B1
:10D8B000F8B52C4E044670680025009041E0002C1D
:10D8C00002D02046E46920E0264818231030017871
:10D8D00042684B43491CC9B2D218017083789942FF
:10D8E00000D105701178506801292CD1017C0029E4
:10D8F00029D191684160D16881601169C160516925
:10D900008161F178002900D045604368B268164F04
:10D91000991A0902090AB94202D28268891806E0F6
:10D92000D11A09028268090A8A4202D9511A016091
:10D9300000E005604560012185600174C56101F06A
:10D9400021FB002CBBD10748103001784078814280
:10D95000BAD171680098814201D00120F8BD002041
:10D96000F8BD0000AC200020FFFF7F0070B5114C17
:10D97000207800281CD000F0D5F80546E0697D220B
:10D98000291AE088D20050430126814203D8A169B8
:10D99000691A814204D900F007FFA561E561A6700C
:10D9A00005480078002802D0667000F04FFF012083
:10D9B00070BD000048200020FD1F0020002386B01D
:10D9C0004A4A03211846FEF78DFC002801D0FEF7D5
:10D9D0003DFC00F0C9F801F01DFD454A4549012014
:10D9E000FFF78AF9002801D0FEF730FC69460020D5
:10D9F000FFF772F8002801D0FEF728FC002501226D
:10DA0000172000952B461146019500F0EDFB0124EF
:10DA1000394EE405B461F4607D20C00000F0E6F802
:10DA2000B4603648FEF746FE002801D0FEF70EFC33
:10DA300033482E494068059000234822483905A8FC
:10DA400001F0A0F9002801D0FEF700FC6A46002191
:10DA5000012001F07FF9002801D0FEF7F7FB6846AE
:10DA600001F06EF9002801D0FEF7F0FB254801F027
:10DA70005DF9002801D0FEF7E9FB234800901B4820
:10DA800069464830FEF7E6FE002801D0FEF7DEFBCF
:10DA9000FDF7C2FCFDF7C0FE1C4E1D4C307800287F
:10DAA00016D100F03FF8E1681A4A411A91420CD9A8
:10DAB000E060FDF76BFE002807D017A10020FDF7FE
:10DAC0009DFF606801F090F9E560642000F08EF839
:10DAD000FFF74CFF2078002800D00020207048DF9E
:10DAE0000028DBD0FEF7B2FBD8E700004C21002075
:10DAF00051CC0100CD0C00000005005019D30100ED
:10DB00003CF6010089C70100B1C701004820002090
:10DB1000E81F0020204E00006D717474636F6E0D5D
:10DB20000A00000010B50B49012048600A4841680E
:10DB30000A490B4B0A6C09695A430A4B406859431E
:10DB4000511808187D220023D2001946FDF7F4FA77
:10DB500010BD00004090004040950040FC1F002098
:10DB600040420F00102700001049002008641048B0
:10DB700002218160042101610D490E484031086095
:10DB80000D49012008600D4A010451600C4A1168DA
:10DB9000FF231B029943830319431160094A410281
:10DBA00011600949C860086070470000FC1F002030
:10DBB00000950040102700000092004000930040B4
:10DBC00008E400E000E100E000900040C2084307E4
:10DBD0005B0F0120895C984008407047012189074C
:10DBE00040180068002800D0012070477D21C9003E
:10DBF00048430FD00849094A096800BF00BF00BF69
:10DC000000BF00BF00BF00BF00BF914200D000BFF7
:10DC1000401EF2D170470000002100200024F400D3
:10DC20007D21C90048430FD00849094A096800BF4F
:10DC300000BF00BF00BF00BF00BF00BF00BF9142D8
:10DC400000D000BF401EF2D170470000002100202C
:10DC50000024F4007D21C90048430FD00849094A37
:10DC6000096800BF00BF00BF00BF00BF00BF00BF0A
:10DC700000BF914200D000BF401EF2D170470000AB
:10DC8000002100200024F40000280FD00849094A90
:10DC9000096800BF00BF00BF00BF00BF00BF00BFDA
:10DCA00000BF914200D000BF401EF2D1704700007B
:10DCB000002100200024F40070B50E4C00252078CF
:10DCC000002801D0852513E00021A1606160216159
:10DCD000E160094800680126304002D1032100F0CC
:10DCE0002FF801F07BF8002801D1044886612670E6
:10DCF000284670BD382B002000E100E00005004000
:10DD000038B50020694608706846FEF711FC084CDB
:10DD10002078002801D1FFF7CFFFE068401CE060C9
:10DD20000120A07068460078FEF720FC38BD000096
:10DD3000382B002010B5002801D1FFF771F910BD74
:10DD40008207D30EFF229A408907090E10B5994029
:10DD500000280BDA03071B0F083B9C080C4BA400A0
:10DD6000E318DC6994430C43DC6107E08408094B49
:10DD7000A400E418236893430B432360C106C90E33
:10DD800001208840044908600449086010BD000073
:10DD900000ED00E000E400E080E200E000E100E0EF
:10DDA000F3B581B0054600F0E7FC1F4F0028284678
:10DDB00017D0FFF70FF9C0192030007F8009032822
:10DDC00002D001280BD005E018480069E840C007E0
:10DDD000C00F04D00321284600F07AFAFEBD0221CC
:10DDE000F9E700F0D5FC0028F8D02846FFF7F2F854
:10DDF00004468000C11D0E4AF9318018026989B2BB
:10DE0000012632430261084600F094FA0298002885
:10DE1000E4D02846FFF7DEF8800038580028DDD02F
:10DE20000448A6404660FEBD4C2B00200005005073
:10DE30000065004000630040FEB5044625480E46DC
:10DE40000019202141560027C8171346401C01D055
:10DE500008273CE0F27819462046FFF797F8054678
:10DE6000401C33D0B07800280BD005200007A1005B
:10DE70000918072000020918086802229043086068
:10DE800007E000217378204600910A46019100F0D6
:10DE9000D3F9F078002810D00F48AA001018317874
:10DEA00002690E4B1A400261E206D20C8907890B07
:10DEB0000A4301690A43026109E0064832784019C1
:10DEC0002030017F92011143017700E0042738469A
:10DED000FEBD00004C2B002000650040FFE0FCFF71
:10DEE00003490969C140C807C00F00D0012070472D
:10DEF0000005005070B5144D2879002801D0082085
:10DF000070BD114900204039421E0B182033401CBF
:10DF1000C0B21A702028F8D300242046FFF728F852
:10DF2000641CE4B2082CF8D303210620FFF708FF95
:10DF3000FF207D3000F0FEF901200449C007486051
:10DF400001202871002070BD8C2B00200063004050
:10DF500002480079002800D0012070478C2B002057
:10DF6000F8B506460F4600791C2148431A49154664
:10DF70004418E07E002801D00820F8BD394630461C
:10DF8000FEF70AFB656038692060284600250028F6
:10DF900013D0FF223068397F1D328550FF22306850
:10DFA00045328550032330681B020C4AC01842607A
:10DFB0003068000B40B2FFF7C3FE05223068042131
:10DFC000120280180160E5752576A5750121E176BC
:10DFD0002846A576F8BD0000942B002080000200A2
:10DFE000F8B503791C246343134C81251C190327BE
:10DFF00066680023AD003F02002E02D00668F619C5
:10E00000B560E67D002E0ED0237E002B07D0616820
:10E01000002902D00068C01945601120F8BD2161B7
:10E020000123227604E0E2750025E160657625761D
:10E0300000F01AF8F8BD0000942B002070B50446DB
:10E0400000791C21074D48434019807E002808D1E3
:10E05000204600F0D8FD20791C22012150434019B0
:10E06000817670BD942B0020F8B5044600791C2100
:10E07000484326494518A87E184302D1204600F09F
:10E08000C2FD6868002808D0812103222068890029
:10E090001202801841600020F8BDFF204530216841
:10E0A00000220A50FF212531206800F055F906466C
:10E0B000FF210931206800F04FF90090FF21453120
:10E0C000206800F049F90746009838433043E9D00A
:10E0D0003046384307D12946206800F077FDE87DB7
:10E0E000697E8842DED80020E875002E01D003202A
:10E0F000F8BD002F01D00F20F8BDA97E0120002916
:10E10000216801D00860C6E74860C4E7942B00206E
:10E1100070B505460C4600791C2148430849431850
:10E12000284600F055F8002801D0112070BD9A75DE
:10E1300000209C609882284600F004F870BD000022
:10E14000942B0020F8B5044600791C2148431F4950
:10E1500000264518FF2720681D37C6512068012179
:10E1600081602946206800F091FF6968002913D07A
:10E1700027E0FF270137FF211D31206800F0ECF870
:10E18000002802D1A88AB842F5D1A88AB84203D0A3
:10E190002946206800F07AFFA88AA97D8842E8D342
:10E1A000A98AC81FF9380ED0FF271D3739462068C5
:10E1B00000F0D2F80028F9D020680121C1600020C9
:10E1C000A8753046F8BD0F26F9E70000942B002013
:10E1D00000791C21484303494018807D002800D065
:10E1E00001207047942B002070B552000A4399001B
:10E1F000049D0A432902059E0A43310405240A436B
:10E20000240780000721001909024018026070BD30
:10E2100070B552000A439900049D0A432902059EE5
:10E220000A43310405240A4324078000072100190A
:10E2300009024018026070BD70B552000A4399008F
:10E24000049D0A432902059E0A43310405240A431A
:10E25000240780000721001909024018026070BDE0
:10E2600070B552000A439900049D0A432902059E95
:10E270000A43310405240A432407800007210019BA
:10E2800009024018026070BD1CB500220B460092C6
:10E2900011460192FFF7E4FF1CBD1CB5002100915F
:10E2A0000B46012201911146FFF7DAFF1CBD052242
:10E2B000120780008218072000021018026803234A
:10E2C0001B049A430260026809040A430260704713
:10E2D0000522120780008218072000021018026829
:10E2E00003231B049A430260026809040A43026084
:10E2F00070470000012282400348002901D082605B
:10E300007047C260704700000005005038B5084BE8
:10E3100005241B68009324026B46411805E0850024
:10E320005D592D192D69401C20C28142F7D838BD96
:10E3300038F70100024940180021016070470000D1
:10E3400000600040034940180068012800D0002008
:10E3500070470000006000404058002800D00120B5
:10E3600070470322120280184068084000D0012044
:10E37000704700003EB50446011D00881D2819D0D5
:10E380000EDC102849D013285AD01B2807D1087951
:10E39000022852D0032802D130A0FDF74DFC3EBD2B
:10E3A0001F2853D03A2855D05528F8D1A0881321DA
:10E3B00076DF3DE0091D0C463048FFF7A3F9002841
:10E3C000EDD0A079DD28EAD160790828E7D120795D
:10E3D0005528E4D1E0782728E1D1A078E728DED1DC
:10E3E00060788828DBD1254A20460832114608315A
:10E3F0008CDF0028D3D1FEF771FC002801D0FDF797
:10E4000025FFE0786278A1786B4607C323796279AB
:10E41000A1791BA0FDF710FC3EBD0720FEF75EFCB6
:10E42000002801D0FDF712FFA1882148FEF77CF9F2
:10E430000028F1D0FDF70AFF3EBD00F0F1FB3EBD24
:10E440000023A0881A4685217FDFF1E70888091D8F
:10E4500075DFEDE7A088132176DFE9E7436F6E6E85
:10E46000656374696F6E205265717565737420748D
:10E47000696D6564206F75742E0D0A003CF601000D
:10E48000436F6E6E656374696E6720746F2074618C
:10E490007267657420253032782530327825303225
:10E4A000782530327825303278253032780D0A00E0
:10E4B000A4210020F3B583B00C460A8809210398F3
:10E4C00089014718F88B82425ED1B87E64214843A7
:10E4D000039946186088002843D1204608300290EE
:10E4E0003579207A2818052800D9052030710020B8
:10E4F00001901AE001980A21484302990A22411822
:10E5000012206843801900900A30891CFCF744FEF1
:10E510000098002181820098C182009801830098B0
:10E5200041830198401C6D1C01903079A842E1D8CC
:10E5300012204543A9190A88B97E642303985943D8
:10E540000818008982420CD23079052809D07876E3
:10E5500021880398FEF746FD010015D00020F876CB
:10E5600009E000257D76228869460398FEF7DCFEE7
:10E5700001000BD0FD7622880398FEF78FFF0A4832
:10E58000032101702188418005B0F0BD6846007804
:10E590000028F9D0228801210398FEF737FF21884F
:10E5A000039800F0B3F8EFE7B0280020F3B581B08E
:10E5B0000C460A880921019889014518E88B824296
:10E5C0005CD1A87E64214843019922464318687EA5
:10E5D00012214843C018618808320A3000292CD023
:10E5E0002EE006264E43B618B446B68829273F02C9
:10E5F000F61B0AD0012E0CD0022E02D0082E0FD10D
:10E600000BE06646768846810AE066467688868113
:10E6100006E066467688C68102E06646768806820F
:10E620004689002E08D08689002E05D0C689002E86
:10E6300002D0068A002E03D1491C16888E42D0D8FB
:10E64000002668460670687E1979401C884203D10E
:10E6500001206946087016E06876228869460198AC
:10E66000FEF762FE01000AD0EE7622880198FEF7DE
:10E6700015FF0A480321017021884180FEBD6846CC
:10E6800000780028FAD0228801210198FEF7BEFE0A
:10E690002188019800F03AF8FEBD0000B028002063
:10E6A00070B50646092080010C463518A87E642105
:10E6B000484381192288E88B82420AD16088002869
:10E6C00008D000213046FEF7A1FE2188304600F038
:10E6D0001DF870BD62890A80A2894A80E289CA80D9
:10E6E000208A088121883046FEF77CFC0100F0D0AA
:10E6F0000020E87622883046FEF7D0FE024803214B
:10E7000001702188418070BDB0280020F8B507460F
:10E71000092080013C18207F0E46401CC0B21449DD
:10E720002077C968002588421FD26576A07E6421C3
:10E73000401CC0B24143CA19A0760E49800040185F
:10E74000018811804088508015710121304690DF8A
:10E75000010009D0E57632463846FEF79FFE0548AF
:10E760000321183001704680F8BDE576F7E7000018
:10E7700088200020982800200449081820214156AC
:10E78000042901DB01207047002070474C2B00203A
:10E790000449081820214156042901D2012070475C
:10E7A000002070474C2B002070B5194DC0202870F8
:10E7B000002068707D216422C90016A0FDF72EFF9D
:10E7C000002413482A5D18A13238FDF745FA104994
:10E7D00000203239FDF712F9285DFDF789FE002887
:10E7E000FAD1641C022CECDB114C207800280AD0F2
:10E7F00010A10020FDF702F900F028F810A1002078
:10E80000FDF7FCF870BD07A10020FDF7F7F8ECE775
:10E81000C627002041542B43495053454E443D30B8
:10E820002C320D0A0000000064313D25640D0A0001
:10E83000FD1F00207265736964616D310D0A00006F
:10E840007265736964616D320D0A0000F0B5864827
:10E85000A5B00078002811D00024844D09E02A5D7D
:10E8600083A18548FDF7F8F983490020FDF7C6F834
:10E87000641C7E48FCF7B4FCA042F0D87FA10020C5
:10E88000FDF7BCF800200490059006907E48FCF748
:10E89000A7FC0646E0E000210170322264217BA043
:10E8A000FDF7BCFE0025784C09E0625D7CA1724852
:10E8B000FDF7D2F970490020FDF7A0F86D1C7248F1
:10E8C000FCF78EFCA842F0D87848761E40780028E5
:10E8D00000D0761C0025771BE25D75A16648FDF728
:10E8E000BBF965490020FDF789F8E05D2C2814D0BC
:10E8F00071A10020FDF782F8E35DA90004A8303B78
:10E9000043502A466EA15C48FDF7A6F95A490020FB
:10E91000FDF774F86D1C0A2DDDDB05980A214843CC
:10E92000069964225143401804994418224667A16D
:10E930005148FDF791F950490020FDF75FF8342266
:10E94000644918A8FCF728FC224663A101A8FDF73A
:10E9500083F9002418AF0BAD02E0385D2855641C24
:10E9600018A8FCF73DFCA042F7D868460079285566
:10E9700028190A214D4C41706278002A03D06A465A
:10E980005279427081707D213222C9000BA8FDF7B7
:10E9900045FE607800285FD0002044494F4C487005
:10E9A0000546625D4EA13448FDF756F93249002014
:10E9B000FDF724F86D1C462DF3D33C4902220C319F
:10E9C0004648FCF72BFC002806D138490120087086
:10E9D00046A10020FDF712F80025152708E0484859
:10E9E00048A1425524483238FDF736F96D1C7F1C8A
:10E9F000E25D0D2AF3D10020414F044678550BE02B
:10EA00001D483A5D43A13238FDF726F91A49002026
:10EA10003239FCF7F3FF641C3948FCF7E1FBA042F4
:10EA2000EED8224C36492069FCF7E1FB002806D1DC
:10EA30003CA1FCF7E3FF01203E49C0058860304956
:10EA40006069FCF7D4FB002806D13BA1FCF7D6FF98
:10EA500001203849C005C8603C480178002900D031
:10EA600019E725B0F0BD0000FE1F00200827002098
:10EA7000683D25640D0A0000C627002068692062F1
:10EA80006162790D0A0000003626002041542B43B4
:10EA9000495052584745543D342C300D0A0000006F
:10EAA0006B6B6B3D25640D0A0000000048200020C0
:10EAB000783D25640D0A00006464640D0A000000BE
:10EAC000695B25645D3D2564000000006B3D2564A5
:10EAD0000D0A0000A8F60100256400007C26002035
:10EAE00062756631333D25640D0A0000636F6E6EFA
:10EAF0006563745F61636B5F663D310D0A00000002
:10EB00004E270020616E735F6275663D25640D0AB5
:10EB100000000000616E73315F6275663D25630D14
:10EB20000A000000746865206C6564206973206FBA
:10EB30006E0D0A0000050050746865206C65642045
:10EB40006973206F66660D0A00000000FD1F00203B
:10EB5000F0B50C4B00210A4ADC680CE08D00AE18C1
:10EB6000B6788778BE4205D1555B0688B54201D19B
:10EB70005868F0BD491CA142F0D30020F0BD000050
:10EB8000982800208820002070B501240B496004DB
:10EB900008600B4940108860094940398860094D78
:10EBA0006C602F20FFF770F8AC60074D00242F2019
:10EBB000AC60FFF769F8AC7070BD000080E100E068
:10EBC0004013014000100140AC20002030B5FF226E
:10EBD0000523CD7D002409321B02C318002D84506B
:10EBE000986905D04B7ECA68D054487E401C487650
:10EBF00030BD1FB501246B461C701972019206C806
:10EC0000684690471FBDFF23253302680021D1507D
:10EC1000FF2302680933D150006801210160704769
:10EC200010B507488ADF002801D0FDF70FFB01204F
:10EC3000FEF754F8002801D0FDF708FB10BD0000D6
:10EC40004CF6010010B50446FDF736F800280CD04C
:10EC5000A007C00E002C0ADA2107090F083989081D
:10EC6000144A89008918C96906E0134810BDA10833
:10EC7000124A890089180968C1400806800F0428D3
:10EC800011D200280FD002280DD00D494B68E206A2
:10EC9000D20E01209040002B08D0620992008B58C0
:10ECA00003438B5004E00448401C10BD0549086034
:10ECB000002010BD00ED00E00120000000E400E0B5
:10ECC000E020002000E100E010B50C4691B21A46A9
:10ECD000FEF736FC00280FD00B48007800280AD039
:10ECE00021460A48FCF783FA002807D008A1002033
:10ECF000FCF784FE002010BD08A1F8E709A1002060
:10ED0000FCF77CFE012010BDFC1F002036260020F1
:10ED10006768616C61740D0A0000000066616C73C5
:10ED2000650D0A00747275650D0A0000002803D095
:10ED30000249C860002070470E207047EC20002078
:10ED40001CB5034901910091694660DF1CBD0000BC
:10ED5000E81F002070B50E460546144614211046E3
:10ED6000FCF733FA012000212080216121732672F3
:10ED70006572002D00D0A072002070BD10B5FDF7A7
:10ED800057FA10BDF8B5002903D08C070025002CD8
:10ED900001D00720F8BD0E4E0E4FB1607280736037
:10EDA00039680124214003D00A49254680310C608E
:10EDB000094910DF002803D0002DEBD03C60F8BDDE
:10EDC0003470FEF79DFF1620FFF73CFFF8BD0000F2
:10EDD000EC20002000E100E07DED0100014800781A
:10EDE00070470000EC20002010B5002100F002F870
:10EDF00010BD0000F8B50D4607462AA10020FCF71B
:10EE0000FDFD3846FCF7ECF9002F05D0012D05D9A2
:10EE100026A10020FCF7F2FD0020F8BD25A100206E
:10EE2000FCF7ECFD254C20780028F6D024A100202A
:10EE3000FCF7E4FD6089401C0004000C608101D1F6
:10EE40000120608180B2204E010A7171B0710722E9
:10EE50003146384600F0DCFB3554441C1BA1002031
:10EE6000FCF7CCFD7D25ED006422294619A0FDF7B5
:10EE7000D5FB642229461CA0FDF7D0FB641FA2B27B
:10EE80003146822000F092FB184C03E016A10020CE
:10EE9000FCF7B4FD20780028F8D0FFF7D7FC01205C
:10EEA000F8BD0000737562310D0A0000737562339E
:10EEB0000D0A0000737562350D0A0000482000201D
:10EEC000737562360D0A0000C62700207375620D47
:10EED0000A00000041542B43495053454E443D30F5
:10EEE0002C32340D0A00000000000000F91F002041
:10EEF000FEB51F4C0025A768606802906846FEF7C3
:10EF0000E5FA0190FEF77EFC06460198002822D023
:10EF100000230098616817E00E680A46864202D90D
:10EF2000301A086012E0801BF31800261660D668BD
:10EF3000D169B446002E07D0FE183602360A566054
:10EF400066469660D56115460029E5D12846616080
:10EF5000FEF7AEFC06E02846FEF7AAFC002801D129
:10EF6000002E02D00298FEF76FF80020E070FEBD80
:10EF7000AC20002001200249000508607047000015
:10EF800000E200E010B50E4B5968002906D0026877
:10EF90000C68A24204D8A21A0A60C161586010BD70
:10EFA0000B4604E00B46C969121B002904D00C680B
:10EFB0009442F7D3A41A0C600260C161D86110BDFD
:10EFC000AC2000207CB50D460646002469460C7036
:10EFD0006846FDF7ADFA01A800F0D2FA00280DD07E
:10EFE00005704660684608490079487068460078B0
:10EFF000FDF7BCFAFFF7BEFF20467CBD684604243F
:10F000000078FDF7B3FAF7E7BC200020F8B51D4DF6
:10F010006C68002C34D01C4800274068A968401A4E
:10F020000602360A2068B04218D8361AC719224696
:10F03000107CE46900280FD000201074EB68002BCE
:10F0400007D0916950699847002805D0FDF7FEF870
:10F0500002E0516990698847002CE3D129786878EB
:10F06000814206D1401CC0B26870022801D1002044
:10F07000687004490006800D18310F50FFF77AFFC1
:10F08000F8BD0000AC20002000150140FF221D3219
:10F09000002383508B8A8A68D25C8B8A5B1C8B82AC
:10F0A000052109024018C26170471FB500226B4656
:10F0B0001A70197281680191827506C86846904776
:10F0C0001FBD0000F8B50178002907D0012901D043
:10F0D000022902D14068FDF7B9F8F8BD7E4C7D4D9C
:10F0E000207A2818FDF790F9207A0021401CC0B240
:10F0F0002A182072203A937F01263E2B1BD0D27F04
:10F100000A2AEAD10228E8D926712954E08121721D
:10F110006079002808D000202946607146312A5CB9
:10F120000A54401C4628FAD36A48E169FCF75FF8A4
:10F13000002831D035E0694A16702954E0812172E7
:10F1400067A10020FCF75AFC00271BE06148EA5D3C
:10F1500065A1BE30FCF780FD5E490020BE31FCF7A2
:10F160004DFC5C48FCF73CF8B8420AD15948EA5DCE
:10F170005EA1BE30FCF770FD56490020BE31FCF7A1
:10F180003DFC7F1C5348FCF72BF8B842DED8012029
:10F19000FEF746FD2670F8BD667056A10020FCF70C
:10F1A0002DFC4C486169FCF722F8002803D154A1DA
:10F1B000FCF724FCA6714748A169FCF718F8002861
:10F1C00003D152A1FCF71AFCE6714248A16AFCF790
:10F1D0000EF8002803D1A6724FA1FCF70FFC3D48A2
:10F1E000616AFCF704F8002800D166723948E16AC8
:10F1F000FBF7FDFF002800D1E6723648216BFBF7D4
:10F20000F6FF002800D1267310223248616BFCF70C
:10F2100005F8002803D1667142A1FCF7EFFB2D48E9
:10F22000A16BFBF7E4FF00280CD1A670002704E0D7
:10F230002848E95DD230C1557F1C2648FBF7D0FF36
:10F24000B842F5D82348E16BFBF7D1FF002803D182
:10F25000E67038A1FCF7D2FB1E48216AFBF7C7FF16
:10F26000002805D137490870207337A1FCF7C6FB89
:10F27000194918484431FBF7BAFF002802D136A1DA
:10F28000FCF7BCFB16A10020FCF7B8FB00271BE035
:10F290001048EA5D14A1BE30FCF7DEFC0D490020E9
:10F2A000BE31FCF7ABFB0B48FBF79AFFB8420AD123
:10F2B0000848EA5D0DA1BE30FCF7CEFC05490020F0
:10F2C000BE31FCF79BFB7F1C0248FBF789FFB8426D
:10F2D000DED85CE736260020FC1F0020F81F002047
:10F2E000726573756C743D002563000025630D0A1B
:10F2F00000000000756D6164692074750D0A0000DE
:10F30000627566343032330D0A000000627566346F
:10F310003032340D0A00000073616C616D20627937
:10F32000650D0A00646F726F7374206D6973686590
:10F330000D0A00004C4544206973204F46460D0AD3
:10F340000000000048200020726166746920626934
:10F3500072756E0D0A00000073756261636B20693F
:10F360007320646F6E650D0A000000007CB50178A3
:10F37000264D002934D001290CD002292DD16A460E
:10F380001170C068691C01900122C81DFEF728FE9B
:10F39000684630E0406801781D48FCF780FF012690
:10F3A0001B4C002803D069460E70019006E0A0684F
:10F3B000E168814205D00020694608700846696806
:10F3C0008847A068E168081AA188884206D80F49D2
:10F3D0000122491CC81DFEF703FE7CBDAE707CBD3A
:10F3E0000B480A491030FCF73DFF002806D00320E7
:10F3F000694608706846696888477CBD03490122F0
:10F4000008460830FEF784FE7CBD0000CC200020BA
:10F41000D02B002000B58BB018220C496846FBF7B2
:10F42000BBFEFF2101310A4806904018079109915F
:10F4300008900323074A06A96846FDF701F800284B
:10F4400001D0FCF703FF0BB000BD00005CF601002B
:10F4500036240020C5F00100F0B50C46012185B02E
:10F4600005464902FEF77DFF032109026F180026B9
:10F47000002826D0FF2125312846FEF76DFF002801
:10F480001FD0FF2025302E5081208000B860A07E44
:10F49000002801D10120686002216846017009201E
:10F4A000C0012918086808600390E17D6846017270
:10F4B000E0680190E675267606CC6846083C9047E1
:10F4C0002DE004212846FEF74CFF002827D0FF211D
:10F4D00009312846FEF740FF002820D02146284663
:10F4E000FFF774FBE07D617E884218D1207E002802
:10F4F00007D0617EE268E0752069E0602676667676
:10F500000AE0A07E002801D10120686081208000EF
:10F51000B860E675617EE2682046FFF76AFBFF2768
:10F520001D3739462846FEF717FF00280FD0A08A5E
:10F53000A17D884204D221462846FFF7A7FD06E0B8
:10F54000EE51A17D002902D02046FFF7AEFDFF2736
:10F55000453739462846FEF7FFFE00280ED0EE510B
:10F56000A07E002801D001202860E07D002805D081
:10F57000E675617EE2682046FFF73BFB05B0F0BD13
:10F5800010B509494B788C785A1CD2B2944200D1FC
:10F5900000220C78944201D1002010BD027048680E
:10F5A00018214B43C01810BDBC20002070B5154673
:10F5B0000E46FDF7B5FCC0B205210C1A6D1D16E014
:10F5C000305DFCF795FF0028FAD1335D22460AA191
:10F5D0000D48FCF741FB0C490020FCF70FFA0BA18A
:10F5E0000020FCF70BFA0A20FEF734FB641CAC4247
:10F5F000E6DB012070BD00006275665B25645D3D41
:10F6000025640D0A0000000094270020660D0A0002
:10F6100010B500230446921C90B205E00A54401C29
:10F620005B1C80B29BB2641C2278002AF6D1C41AFB
:10F630001A0A611820398A77CB7710BD231502008A
:10F64000010000075000A000000090010100000030
:10F6500000000000A0005000000000000B000000AF
:10F6600009000000080000000A000000000000007F
:10F670000050270041542B43495052584745543DB0
:10F68000322C302C000000000000000000000000C0
:10F69000000000000000000000000000000000006A
:10F6A000000000000000000041542B434950525814
:10F6B0004745543D322C302C000000000000000073
:10F6C000000000000000000000000000000000003A
:10F6D00000000000000000000000151617181112AD
:10F6E000131400002C2800204C280020782800202B
:10F6F00011000300B5CB010012000300B5CB0100DF
:10F7000013000300B5CB010014000300B5CB0100CA
:10F71000FB349B5F800000800010000000000000B0
:10F7200001010000000002000000000002010000D2
:10F73000000000000000000000000050B02B00207E
:10F7400003000000FFFFFFFFFFFFFFFFFFFFFFFFC2
:10F75000FFFFFFFF000000000000000000E0D701F5
:10F760000300000047736D436C69656E74546573E4
:10F77000742F6C6564000000636C6F75642E736D8C
:10F78000617274686F6F6D2E636F6D000D0A2B438D
:10F79000495052584745543A20312C300D0A000048
:10F7A0000D0A2B43495052584745543A20342C30C7
:10F7B0002C320D0A000000000D0A2B43495052580C
:10F7C0004745543A20342C302C32330D0A000000C7
:10F7D0000D0A2B43495052584745543A20342C3097
:10F7E0002C340D0A000000000D0A2B4349505258DA
:10F7F0004745543A20342C302C32340D0A00000096
:10F800000D0A2B43495052584745543A20342C3066
:10F810002C350D0A000000000D0A302C20434C4FFF
:10F820005345440D0A0000000D0A302C20434F4E72
:10F830004E454354204F4B0D0A0000000D0A2B4348
:10F84000495052584745543A20322C3000000000AD
:10F850006F6666006F6E000078F80100E81F0020F8
:10F860001C0100009ABC010094F901000421002051
:10F87000B4130000AABC01000105000064F70100F8
:10F8800078F7010000000000000000000100000007
:10F890000000000000000000000000000000000068
:10F8A000B8F70100E8F701008CF7010018F8010033
:10F8B000D0F7010000F80100A0F7010028F80100CE
:10F8C0003CF80100B8F70100E8F701000000000073
:10F8D0009003000200000000000000000F001E0066
:10F8E000000000002002000054F8010050F8010060
:10F8F0000000000000000000000000000000000008
:10F9000000000000000000000000000000000000F7
:10F9100000000000000000000000000000000000E7
:10F9200000000000000000000000000000000000D7
:10F9300000000000000000000000000000000000C7
:10F9400000000000000000000000000000000000B7
:10F9500000000000000000000000000000000000A7
:10F960000000000000200040000000000000000037
:10F970000000000000000000000000000000000087
:10F980000000000000000000000000000000000077
:04F990000024F4005B
:040000050001B0C185
:00000001FF
